{"abi":[{"type":"constructor","inputs":[],"stateMutability":"nonpayable"},{"type":"receive","stateMutability":"payable"},{"type":"function","name":"CLAIM_AMOUNT","inputs":[],"outputs":[{"name":"","type":"uint256","internalType":"uint256"}],"stateMutability":"view"},{"type":"function","name":"claim","inputs":[],"outputs":[],"stateMutability":"nonpayable"},{"type":"function","name":"claimFor","inputs":[{"name":"to","type":"address","internalType":"address"}],"outputs":[],"stateMutability":"nonpayable"},{"type":"function","name":"claimed","inputs":[{"name":"","type":"address","internalType":"address"}],"outputs":[{"name":"","type":"bool","internalType":"bool"}],"stateMutability":"view"},{"type":"function","name":"faucetBalance","inputs":[],"outputs":[{"name":"","type":"uint256","internalType":"uint256"}],"stateMutability":"view"},{"type":"function","name":"fund","inputs":[],"outputs":[],"stateMutability":"payable"},{"type":"function","name":"hasClaimed","inputs":[{"name":"account","type":"address","internalType":"address"}],"outputs":[{"name":"","type":"bool","internalType":"bool"}],"stateMutability":"view"},{"type":"function","name":"owner","inputs":[],"outputs":[{"name":"","type":"address","internalType":"address"}],"stateMutability":"view"},{"type":"function","name":"transferOwnership","inputs":[{"name":"newOwner","type":"address","internalType":"address"}],"outputs":[],"stateMutability":"nonpayable"},{"type":"function","name":"withdraw","inputs":[{"name":"amount","type":"uint256","internalType":"uint256"}],"outputs":[],"stateMutability":"nonpayable"},{"type":"event","name":"Claimed","inputs":[{"name":"to","type":"address","indexed":true,"internalType":"address"},{"name":"amount","type":"uint256","indexed":false,"internalType":"uint256"}],"anonymous":false},{"type":"event","name":"Funded","inputs":[{"name":"from","type":"address","indexed":true,"internalType":"address"},{"name":"amount","type":"uint256","indexed":false,"internalType":"uint256"}],"anonymous":false},{"type":"event","name":"OwnershipTransferred","inputs":[{"name":"previousOwner","type":"address","indexed":true,"internalType":"address"},{"name":"newOwner","type":"address","indexed":true,"internalType":"address"}],"anonymous":false},{"type":"error","name":"AlreadyClaimed","inputs":[]},{"type":"error","name":"InsufficientFaucetBalance","inputs":[]},{"type":"error","name":"NotOwner","inputs":[]},{"type":"error","name":"TransferFailed","inputs":[]},{"type":"error","name":"ZeroAddress","inputs":[]}],"bytecode":{"object":"0x608060405234801561001057600080fd5b50600080546001600160a01b0319163390811782556040519091907f8be0079c531659141344cd1fd0a4f28419497f9722a3daafe3b4186f6b6457e0908290a36107078061005f6000396000f3fe6080604052600436106100955760003560e01c80638da5cb5b116100595780638da5cb5b14610194578063b60d4288146101cc578063c884ef83146101d4578063ddeae03314610204578063f2fde38b1461022457600080fd5b80631720f5d2146100d6578063270ef385146100f85780632e1a7d4d146101145780634e71d92d1461013657806373b2e80e1461014b57600080fd5b366100d15760405134815233907f5af8184bef8e4b45eb9f6ed7734d04da38ced226495548f46e0c8ff8d7d9a5249060200160405180910390a2005b600080fd5b3480156100e257600080fd5b50475b6040519081526020015b60405180910390f35b34801561010457600080fd5b506100e5670de0b6b3a764000081565b34801561012057600080fd5b5061013461012f366004610688565b610244565b005b34801561014257600080fd5b506101346102e7565b34801561015757600080fd5b506101846101663660046106a1565b6001600160a01b031660009081526001602052604090205460ff1690565b60405190151581526020016100ef565b3480156101a057600080fd5b506000546101b4906001600160a01b031681565b6040516001600160a01b0390911681526020016100ef565b61013461040c565b3480156101e057600080fd5b506101846101ef3660046106a1565b60016020526000908152604090205460ff1681565b34801561021057600080fd5b5061013461021f3660046106a1565b610443565b34801561023057600080fd5b5061013461023f3660046106a1565b6105db565b6000546001600160a01b0316331461026f576040516330cd747160e01b815260040160405180910390fd5b600080546040516001600160a01b039091169083908381818185875af1925050503d80600081146102bc576040519150601f19603f3d011682016040523d82523d6000602084013e6102c1565b606091505b50509050806102e3576040516312171d8360e31b815260040160405180910390fd5b5050565b3360009081526001602052604090205460ff161561031857604051630c8d9eab60e31b815260040160405180910390fd5b670de0b6b3a7640000471015610341576040516325bab55360e01b815260040160405180910390fd5b336000818152600160208190526040808320805460ff191690921790915551909190670de0b6b3a7640000908381818185875af1925050503d80600081146103a5576040519150601f19603f3d011682016040523d82523d6000602084013e6103aa565b606091505b50509050806103cc576040516312171d8360e31b815260040160405180910390fd5b604051670de0b6b3a7640000815233907fd8138f8a3f377c5259ca548e70e4c2de94f129f5a11036a15b69513cba2b426a9060200160405180910390a250565b60405134815233907f5af8184bef8e4b45eb9f6ed7734d04da38ced226495548f46e0c8ff8d7d9a5249060200160405180910390a2565b6000546001600160a01b0316331461046e576040516330cd747160e01b815260040160405180910390fd5b6001600160a01b0381166104955760405163d92e233d60e01b815260040160405180910390fd5b6001600160a01b03811660009081526001602052604090205460ff16156104cf57604051630c8d9eab60e31b815260040160405180910390fd5b670de0b6b3a76400004710156104f8576040516325bab55360e01b815260040160405180910390fd5b6001600160a01b0381166000818152600160208190526040808320805460ff191690921790915551909190670de0b6b3a7640000908381818185875af1925050503d8060008114610565576040519150601f19603f3d011682016040523d82523d6000602084013e61056a565b606091505b505090508061058c576040516312171d8360e31b815260040160405180910390fd5b816001600160a01b03167fd8138f8a3f377c5259ca548e70e4c2de94f129f5a11036a15b69513cba2b426a670de0b6b3a76400006040516105cf91815260200190565b60405180910390a25050565b6000546001600160a01b03163314610606576040516330cd747160e01b815260040160405180910390fd5b6001600160a01b03811661062d5760405163d92e233d60e01b815260040160405180910390fd5b600080546040516001600160a01b03808516939216917f8be0079c531659141344cd1fd0a4f28419497f9722a3daafe3b4186f6b6457e091a3600080546001600160a01b0319166001600160a01b0392909216919091179055565b60006020828403121561069a57600080fd5b5035919050565b6000602082840312156106b357600080fd5b81356001600160a01b03811681146106ca57600080fd5b939250505056fea2646970667358221220beb4e99ed095043ca92cb0bbd53e50b2cd9de30dbb948181e3a022c7b4747f7364736f6c63430008180033","linkReferences":{}},"methodIdentifiers":{"CLAIM_AMOUNT()":"270ef385","claim()":"4e71d92d","claimFor(address)":"ddeae033","claimed(address)":"c884ef83","faucetBalance()":"1720f5d2","fund()":"b60d4288","hasClaimed(address)":"73b2e80e","owner()":"8da5cb5b","transferOwnership(address)":"f2fde38b","withdraw(uint256)":"2e1a7d4d"},"id":1}